:020000040800F2
:100000000050002069010008B1010008B10100089A
:10001000B1010008B1010008B101000800000000B2
:10002000000000000000000000000000B101000816
:10003000B101000800000000B1010008B101000892
:10004000B1010008B1010008B1010008B1010008C8
:10005000B1010008B1010008B1010008B1010008B8
:10006000B1010008B1010008B1010008B1010008A8
:10007000B1010008B1010008B1010008B101000898
:10008000B1010008B1010008B1010008B101000888
:10009000B1010008B1010008B1010008B101000878
:1000A000B1010008B1010008B1010008B101000868
:1000B000B1010008B1010008B1010008B101000858
:1000C000B1010008B1010008B1010008B101000848
:1000D000B1010008B1010008B1010008B101000838
:1000E000B1010008B1010008B101000800000000E2
:1000F0000000000000000000000000000000000000
:1001000000000000000000005FF808F110B5054C89
:10011000237833B9044B13B10448AFF300800123B3
:10012000237010BD4004002000000000640400089B
:10013000084B10B51BB108490848AFF300800848C8
:10014000036803B910BD074B002BFBD0BDE810407E
:10015000184700BF000000004404002064040008A9
:100160003C04002000000000002103E00B4B5B5822
:10017000435004310A480B4B42189A42F6D30A4ABC
:1001800002E0002342F8043B084B9A42F9D300F006
:1001900011F800F0B3F800F0ADF8704764040008FF
:1001A0000000002040040020400400205C040020E7
:1001B000FEE7000080B400AF154A154B1B6843F002
:1001C000010313601249124B5A68124B13404B60E3
:1001D0000F4A0F4B1B6823F0847323F480331360A2
:1001E0000B4A0B4B1B6823F480231360084A084B0F
:1001F0005B6823F4FE035360054B4FF41F029A60C3
:10020000054B4FF000629A6000BFBD4680BC70474E
:10021000001002400000FFF800ED00E080B485B05F
:1002200000AF0023FB600023BB6000237B602C4BEE
:100230005B6803F00C03FB60FB68042B07D0082B02
:1002400009D0002B33D1274B274A1A6033E0254BC6
:10025000254A1A602FE0224B5B6803F47013BB60E1
:100260001F4B5B6803F480337B60BB689B0C0233DD
:10027000BB607B68002B06D1BB681C4A02FB03F302
:10028000184A136017E0164B5B6803F40033002B29
:1002900006D0BB68154A02FB03F3124A13600AE05A
:1002A000BB68114A02FB03F30E4A136003E00D4BD7
:1002B0000D4A1A6000BF0A4B5B6803F0F0031B098C
:1002C0000B4AD35CFB60074B1A68FB6822FA03F306
:1002D000044A136000BF1437BD4680BC704700BF9E
:1002E000001002400000002000127A0000093D00CA
:1002F0005004000880B400AFFEE700BF70B50F4E99
:100300000F4D761BB61018BF002405D0013455F8E8
:10031000043B9847A642F9D10A4E0B4D00F08CF8E9
:10032000761BB61018BF002406D0013455F8043BE4
:100330009847A642F9D170BD70BD00BF30040020BF
:10034000300400203804002030040020024B13B198
:10035000024800F005B87047000000006D03000877
:10036000002301461A46184600F014B838B5074D68
:10037000074C2C1BA41005D0013C55F8043D9847B0
:10038000002CF9D1BDE8384000F05CB83C040020F6
:10039000380400202DE9F047254C0646256888469C
:1003A000D5F8484192469946C4B360681F2817DCC7
:1003B000411C76B104EB8003C3F888A0D4F88851BF
:1003C000012282401543022EC4F88851C3F80891D7
:1003D0001ED0831C6160002044F82380BDE8F087B4
:1003E000144B03B34FF4C870AFF300800446D0B190
:1003F000D5F84831002784E888003846C5F84841D8
:100400000121C4F88871C4F88C71002EE1D0D1E7C5
:10041000D4F88C311A43C4F88C21DAE705F5A674B8
:10042000C5F84841C1E74FF0FF30BDE8F08700BF95
:100430006004000800000000F8B500BFF8BC08BC6C
:100440009E467047F8B500BFF8BC08BC9E46704792
:100450000000000000000000010203040607080974
:040460000800002070
:1004640000A24A040000000000000000F402002082
:100474005C030020C4030020000000000000000012
:100484000000000000000000000000000000000068
:100494000000000000000000000000000000000058
:1004A4000000000000000000000000000000000048
:1004B4000000000000000000000000000000000038
:1004C4000000000000000000000000000000000028
:1004D4000000000000000000000000000000000018
:1004E4000000000000000000000000000000000008
:1004F40000000000000000000000000000000000F8
:1005040000000000000000000000000000000000E7
:1005140001000000000000000E33CDAB34126DE684
:10052400ECDE05000B0000000000000000000000ED
:1005340000000000000000000000000000000000B7
:1005440000000000000000000000000000000000A7
:100554000000000000000000000000000000000097
:100564000000000000000000000000000000000087
:100894004D030008310100080D01000800000000AC
:0400000508000000EF
:00000001FF
